S014000053435F47656E657269635F312E73726563CE
S113000004C100001FC100001DC100001BC100008D
S113001019C1000017C1000015C1000013C1000080
S113002011C100000FC100000DC100000BC1000090
S113003009C1000007C1000005C1000003C10000A0
S113004001C10000FFC00000FDC00000FBC00000B3
S1130050F9C00000F7C00000F5C00000F3C00000C4
S1130060F1C00000EFC00000EDC00000EBC00000D4
S1130070E9C00000E7C00000E5C00000E3C00000E4
S1130080E1C00000DFC00000DDC00000DBC00000F4
S1130090D9C00000D7C00000D5C00000D3C0000004
S11300A0D1C00000CFC00000CDC00000CBC0000014
S11300B0C9C00000C7C00000C5C00000C3C0000024
S11300C0C1C00000BFC00000BDC00000BBC0000034
S11300D0B9C00000B7C00000B5C00000B3C0000044
S11300E0B1C00000AFC00000ADC00000ABC0000054
S11300F0A9C00000A7C00000A5C00000A3C0000064
S1130100A1C000009FC000009DC000009BC0000073
S113011099C0000097C0000095C0000093C0000083
S113012091C000008FC000008DC000008BC0000093
S113013089C0000087C0000085C0000083C00000A3
S113014081C000007FC000007DC000007BC00000B3
S113015079C0000077C0000075C0000073C00000C3
S113016071C000006FC000006DC000006BC00000D3
S113017069C0000067C0000065C0000063C00000E3
S113018061C000005FC000005DC000005BC00000F3
S113019059C0000057C0000055C0000053C0000003
S11301A051C000004FC000004DC000004BC0000013
S11301B049C0000047C0000045C0000043C0000023
S11301C041C000003FC000003DC000003BC0000033
S11301D039C0000037C0000035C0000033C0000043
S11301E031C000002FC000002DC000002BC0000053
S11301F029C000000C94910A0C94420BBD06AB0676
S1130200AE06B106B406B706BA0611241FBECFEF78
S1130210CDBFDFE2DEBF10E2A0E0B0E2EEE2FCE13F
S113022002C005900D92AC3CB107D9F721E2ACECC9
S1130230B0E201C01D92AE38B207E1F70E94760D1C
S11302400C94150EDDCE80E0089530917821209134
S11302507921822F90E00397E1F431111CC0809141
S11302607C2190917D210497C1F48CEC90E28093E1
S11302707E2190937F2186E891E080938221909360
S1130280832184E090E0809380219093812181E018
S1130290089580E0089580E0089580E0089581E065
S11302A08093D62008950F931F930EE611E020E06B
S11302B030E040ED50E260E082E00E9493091F913B
S11302C00F9108951092DA201092D82081E0809343
S11302D0D620E9DF81110C94E90D0895811107C03E
S11302E0672B21F480ED90E20E94F00DDCCF08959D
S11302F00C94ED0D089525E231E040E050E268ED04
S113030070E28AED90E20C942A0C08958091802189
S113031090918121049721F48CEC90E20C94F10DDE
S113032008950F931F93CF932091D620222321F178
S1130330CFB7F89426E0E0EDF0E2DF011D922A95B4
S1130340E9F726E0FC01A0EDB0E201900D922A95B8
S1130350E1F70FE411E026E030E040ED50E260E028
S113036081E8E1D791E089278093D620CFBF90918F
S1130370D62081E0892701C080E0CF911F910F91A1
S11303800895E091E120F091E2200190F081E02DC8
S1130390228133812E0F3F1FFC014081E40FF11DA8
S11303A0E217F307A0F481818430A1F0861306C01C
S11303B014C081818430A1F08617A9F08081E80FF0
S11303C0F11DE217F307A8F380E090E0089580E0C0
S11303D090E0089580E090E008958E2F9F2F089577
S11303E080E090E008958E2F9F2F089580917821CA
S11303F08F77E4C608959091E320992381F1E091E9
S1130400E120F091E2200190F081E02D94818917A0
S113041040F5E093DF20F093E020228133812E0F1A
S11304203F1FE217F307F8F49181943061F492814D
S1130430981309C09381961306C0E093DF20F093CC
S1130440E02081E008959081E90FF11DE217F307A0
S113045058F3E093DF20F093E02080E0089580E0FB
S1130460089580E0089580E00895FF920F931F930C
S1130470CF93DF93C82F60E0BEDFF82E882379F195
S1130480A091E120B091E220EC2FF0E0EE0FFF1FED
S113049012962D913C911397E20FF31F0081118165
S11304A0D8011696ED91FC9117970995682F8C2F1A
S11304B0A2DFF82E882399F0C091DF20D091E020AC
S11304C065E0CE015EDFEC01009719F08A81EBD77D
S11304D0F7CFD8011296ED91FC91139709958F2DC2
S11304E0DF91CF911F910F91FF9008951F93CF93A8
S11304F0DF93182F80DF882339F1C091DF20D0915A
S1130500E02065E0CE013DDFEC01009741F04C8135
S11305105D816B818A8161D68111F3CF15C0A09171
S1130520E120B091E220812F90E0880F991F12966C
S1130530ED91FC911397E80FF91F0190F081E02DE4
S11305400190F081E02D0995DF91CF911F910895DD
S11305508091DF209091E0200895CDC50895CF9338
S11305608091E3208823C1F0E091E120F091E22022
S11305700190F081E02D8481882371F0C0E08C2FFC
S113058074DFCF5FE091E120F091E2200190F081EF
S1130590E02D8481C81798F31092E3201092E42090
S11305A01092E520CF910895CF938091E320882382
S11305B041F1E091E120F091E220A081B181149613
S11305C08C918823F1F0C0E08C2F90E0880F991F64
S11305D00280F381E02DE80FF91F0190F081E02DF6
S11305E00084F185E02D309709F00995CF5FE09103
S11305F0E120F091E220A081B18114968C91C8177A
S113060018F3CF910895EF92FF920F931F93CF9316
S1130610DF931092802110928121109282211092F6
S11306208321109284211092852120917621222306
S11306300CF08CC280917C2190917D21009709F06F
S11306408AC280C22F7109F0B2C03091772136304E
S113065081F0383009F4A0C03111A9C0029739F4EF
S113066062E070E084EE90E2AFD501E0EEC100E01C
S1130670ECC12091782130917921832F9927823000
S1130680910599F01CF4019739F07CC083309105F1
S1130690D9F10F9759F176C080917C2090917D20FB
S11306A0DC016C9170E090D55CC0E0917C20F0910D
S11306B07D208189281708F067C0C9019927880F10
S11306C0991F880F991FE0917E20F0917F20E80FF9
S11306D0F91F80819181FC016281738175D5E0915C
S11306E07E21F0917F2182E081833BC08091802034
S11306F090918120009709F449C0DC0112966D9114
S11307007C91139761D52DC033272130310581F0B9
S113071048F02230310509F423C22330310509F4AD
S113072023C236C064E070E088E790E24DD519C07A
S11307308AE690E22CE0382FACE3B0E2E82FF92F00
S1130740819190E08D939D938E2F831B8217C0F32C
S1130750220F62E0620F60933A2070E08AE390E235
S113076033D580917C2190917D21209180213091FD
S113077081218217930770F48093802190938121C3
S113078001E063C100E061C100E05FC100E05DC160
S113079000E05BC101E059C1019739F461E070E008
S11307A083EE90E211D501E050C100E04EC121304A
S11307B009F03FC0309177213A30D9F5019799F586
S11307C08091E320882389F1C0917A21D0917B2103
S11307D0E090E120F090E220D701ED91FC9184813A
S11307E0C81728F560E08C2F06DE082F882309F44B
S11307F02CC1CE019927880F991FD7011296ED912C
S1130800FC911397E80FF91F0190F081E02D068009
S1130810F781E02D09958093DE2061E070E08EED94
S113082090E2D2D412C100E010C100E00EC100E099
S11308300CC1223009F00BC120917721211100C194
S1130840029779F480917A2129D590E08093DC2075
S11308509093DD2062E070E08CED90E2B5D401E08D
S1130860F4C000E0F2C02F7109F090C080917721AC
S1130870833009F4E7C018F48130B1F087C08530C3
S113088019F0893061F182C080917C2190917D21A1
S1130890892B41F486EF91E0809382219093832108
S11308A001E0D3C000E0D1C080917C2190917D21F2
S11308B0892B89F48091782190917921019769F4A9
S11308C08091E4209091E5208D7F8093E4209093A3
S11308D0E52001E0BAC000E0B8C000E0B6C08091F5
S11308E07C2190917D21892B09F046C06AD488230C
S11308F009F444C020917821309179213327E09183
S11309007C20F0917D20818990E082179307C0F1CB
S113091026DE80917821909179218093E3208823A9
S113092089F199278150904C880F991F880F991F3E
S1130930E0917E20F0917F20E80FF91FE093E12001
S1130940F093E2200190F081E02D84818823E1F08E
S1130950C0E060E08C2FCADD082F882309F475C03D
S1130960CF5FE091E120F091E2200190F081E02D51
S11309708481C81770F369C000E067C000E065C0F7
S113098000E063C001E061C001E05FC0213009F50F
S1130990809177218B30E9F480917C2190917D21A5
S11309A0892B99F48091E320882389F0C0917A21DE
S11309B0D09178218C2F59DD082F882309F445C064
S11309C06D2F8C2F93DD082F40C000E03EC000E067
S11309D03CC0223009F03BC080917721813019F06E
S11309E08330B1F031C080917C2190917D21892B9D
S11309F059F48091782190917921892B39F480914F
S1130A007A2167D4082F21C000E01FC000E01DC078
S1130A1080917C2190917D21892B71F480917821A2
S1130A2090917921892B51F4CAE7D1E2888102D5CA
S1130A30888156D5082F09C000E007C000E005C032
S1130A4000E003C000E001C000E0011191C080910A
S1130A5076218F718130C1F58091E3208823A1F143
S1130A60C0917A21D0917B210091E1201091E22064
S1130A70D801ED91FC918481C81730F560E08C2F8A
S1130A80BADC882309F1CE019927880F991FD80170
S1130A901296ED91FC911397E80FF91F00811181D3
S1130AA0D8011696ED91FC9117970995682F8C2F14
S1130AB0A2DC882349F0D8011496ED91FC91159796
S1130AC00995082F811154C0809176218F7182304D
S1130AD0D9F58091E320882389F1E091E120F09118
S1130AE0E220A081B18114968C91882349F110E011
S1130AF0212F30E0220F331F0280F381E02DE20F1B
S1130B00F31FC081D181EE81FF810995682F812F68
S1130B1072DC082F882361F1EC81FD810995082F8F
S1130B20811126C01F5FE091E120F091E220A081B5
S1130B30B18114968C911817D8F21AC000E018C02D
S1130B4000E016C000E014C000E012C0822F8076DE
S1130B5009F07DCF88CE322F307609F078CF72CD70
S1130B602FE08AE590E2E7CD27E084EC90E2E3CD44
S1130B70802FDF91CF911F910F91FF90EF900895F7
S1130B80811118C090917421992389F09FB7F8942A
S1130B90E7E8F1E22081215020839FBF08C09FB77E
S1130BA0F894E7E8F1E220812F5F20839FBF8093D0
S1130BB07421089590917421992389F3F8CF0F93A8
S1130BC0E8ECF4E080818F7D808380818F7D808359
S1130BD0E8E5F1E202E0059310925A2110925B21BC
S1130BE000E2069300E40693E0E5F1E200E20693F6
S1130BF000E40693109282211092832110928421A2
S1130C001092852110928021109281211092452109
S1130C100F9108950F9385E080934521E9E5F1E272
S1130C2004E00593E1E5F1E204E005930F910895F2
S1130C300F9383E08093452110925A2110925B21F7
S1130C40E8E5F1E202E006930F910895E091822134
S1130C50F0918321309709F0099508950F93CF936C
S1130C60DF9380914521833019F4F0DFA8DF60C061
S1130C708091412190914221C0918021D091812184
S1130C80C81BD90B71F52091432130914421820F67
S1130C90931F809343219093442120917C21309190
S1130CA07D218217930721F08091E620882341F06B
S1130CB084E080934521E0E5F1E202E0069338C048
S1130CC0E0918421F0918521309799F0099588234A
S1130CD081F01092412110924221C0918021D09143
S1130CE08121C830D10528F01092E620C8E0D0E078
S1130CF003C081E08093E620C0935A21D0935B2106
S1130D00809141219091422120917E2130917F2137
S1130D10280F391F20935C2130935D21C80FD91F00
S1130D20C0934121D0934221E8E5F1E202E0069329
S1130D30DF91CF910F910895FC018181877090E03C
S1130D40FC013197E730F10518F4E250FF4F5EC71C
S1130D5088E090E0089580E290E0089580E490E0D7
S1130D60089580E890E0089580E091E0089580E09F
S1130D7092E008958FEF93E0089580E190E0089564
S1130D80282F2F7030E0220F331F992787FD90956D
S1130D908827990F881F9927820F931F02979C0118
S1130DA0220F331F220F331F220F331F820F931F73
S1130DB0895D9E4D08950F93CF938091CC0480FF5D
S1130DC062C081E08093CC04E0E5F1E200E80693A0
S1130DD0E8E5F1E200E806938093CA04E0E5F1E275
S1130DE000E1069380914521882329F083508230C5
S1130DF008F42CDFE4DE809152219091532108976E
S1130E0009F043C088E0E9E3F1E2A6E7B1E201902A
S1130E100D928A95E1F7E8ECF4E0808180628083AA
S1130E20808180628083EFDBC82F811103C0F2DEF2
S1130E30C1E02CC08091762188236CF41092432168
S1130E4010924421109241211092422182E0809319
S1130E50452104DF1BC020917C2130917D21232B6F
S1130E6011F4E6DE13C01092432110924421109233
S1130E7041211092422181E080934521E0E5F1E295
S1130E8002E0069303C0C0E001C0C1E08C2FCF9103
S1130E900F910895BF92CF92DF92EF92FF920F933A
S1130EA01F93CF93DF93B82E6BDFEC011B2D111F23
S1130EB01127111F8B2D8F70E82EF12CEE0CFF1CC7
S1130EC0E10EF11CC701880F991F880F991F880F25
S1130ED0991F9C01205B3E4D7901C9012DDF6C01F6
S1130EE0112309F459C0D70116962D913C911797F7
S1130EF08D819E81280F391F2D833E838B819C8198
S1130F0028173907B9F1FC01E21BF30B9F012115E6
S1130F10F4E03F0738F02FEF33E0C901B60162D6A1
S1130F20281B390B888181FF09C0C901B6015AD633
S1130F3041E0892B09F040E0942F01C090E08881C2
S1130F4090FB81F98883D70116961D921C921797FE
S1130F5012962D933C93139729813A818D819E811A
S1130F60820F931F14968D939C931597F70102E0BB
S1130F70069394C0888181FF83C08D7F8883D701C5
S1130F8016961D921C92179712961D921C921397F7
S1130F90F70102E0069382C0D70112960D911C91CD
S1130FA01397888182FF13C0E981FA812D813E81E4
S1130FB08B819C81B60116D6B0E4BB9EB00111248E
S1130FC069557F4DAC01CF01820F931F25D62D812A
S1130FD03E81200F311F2D833E83EB81FC81E2177C
S1130FE0F30710F4ED83FE83D70116968D919C913F
S1130FF017978017910709F043C08D819E81E817E8
S1131000F90709F43DC0E81BF90BE115B4E0FB074F
S113101040F0EFEFF3E0CF01B601E4D5E81BF90BA4
S113102005C0CF01B601DED5E81BF90BD701129636
S11310301D921C921397EC15FD0578F48881846049
S11310408883B0E4BB9EC001112489559F4DF701EC
S113105084839583C682D7820FC029813A818D818A
S11310609E81820F931FD70114968D939C9315979D
S11310701696ED93FC931797F70102E006930EC0C2
S1131080888180FF0BC08E7F8883EF81F88530973D
S113109029F06D817E814B2D80E00995DF91CF9100
S11310A01F910F91FF90EF90DF90CF90BF90089524
S11310B0CF93CFB7F89481E063DDEAECF4E080E409
S11310C0808380E28083E1ECF4E08081816080832E
S11310D0A9ECB4E08C9182608C93E8ECF4E080811C
S11310E0806480838C9181608C938081806880830C
S11310F0CFBFCF910895CF93DF93C0E6D0E018829D
S113110080E3ADD4E0ECF4E080818064808381E00E
S11311108883CFB7F89410925121109259211092DC
S1131120612110926921E7E2F1E280818E7F808360
S1131130E0E3F1E280818E7F80836AE170E082E007
S1131140C4D48F3F19F08093FA0403C08FE18093D5
S1131150FA046BE170E082E0B8D48F3F19F0809319
S1131160FB0403C08FE18093FB04E0ECF4E0808196
S113117081608083808180688083808180618083B6
S113118080E591E2868397838081806280838FEFFC
S11311908093C504E8ECF4E0808181608083109240
S11311A074218FB7F894EBE8F1E290819F5F90830C
S11311B08FBF7EDFCFBFDF91CF9108958093C304AB
S11311C008958091C304089580937E2190937F2194
S11311D060938021709381210895E82FEF70F0E0EF
S11311E0EE0FFF1F992787FD90958827990F881F79
S11311F09927E80FF91FEE0FFF1FEE0FFF1FEE0FE9
S1131200FF1FE05BFE4D8181807C09F043C0637069
S1131210613029F010F480E403C080E801C080EC60
S113122040385105E1F050F440325105A1F040340A
S1131230510599F04031510561F419C0411592E00E
S1131240590789F04F3F93E0590779F04115514010
S113125041F020E00DC022E00BC023E009C024E0EF
S113126007C025E005C026E003C027E001C021E057
S1131270118296E09083822B81838181807C803CE3
S113128021F481818770873039F081818062818384
S113129081E0089580E0089581E00895E82FEF70DB
S11312A0F0E0EE0FFF1F992787FD90958827990F8F
S11312B0881F9927E80FF91FEE0FFF1FEE0FFF1F7E
S11312C0EE0FFF1FE05BFE4D818182FB882780F9D2
S11312D00895E82FEF70F0E0EE0FFF1F282F33275B
S11312E027FD30952227330F221F3327E20FF31FE8
S11312F0EE0FFF1FEE0FFF1FEE0FFF1FE05BFE4D13
S1131300918192FF0EC091819B7F918339DDFC0115
S1131310808180FF06C08E7F80830780F085E02D6A
S1131320099581E008957F928F929F92AF92BF9228
S1131330CF92DF92EF92FF920F931F93CF93DF939D
S1131340982E862E5A0169011BDD7C01792C771CAD
S11313507724771CC92DCF70D0E0CC0FDD1FC70DCB
S1131360D11DCC0FDD1FCC0FDD1FCC0FDD1FC05BEB
S1131370DE4D8981807C09F44BC08981807C803C6E
S113138019F0898182FD46C08FB7F894F7019081E6
S113139090FF03C08FBF712C3EC0F7019081916014
S11313A090838FBFF701A182B282C382D482158257
S11313B0168207831087811006C091E0C114D104FE
S11313C019F090E001C091E0F701808190FB81F970
S11313D08B7F8083772019F01E821F8214C089813D
S11313E0807C803C61F4CE01A7DCBC01C601FAD349
S11313F0892B29F0F70180818E7F80830CC01A82AB
S11314001B821E821F82892D45DD7724739403C0BD
S1131410712C01C0712C872DDF91CF911F910F91F9
S1131420FF90EF90DF90CF90BF90AF909F908F9000
S11314307F900895FF920F931F93CF93DF93182FFC
S1131440F82EFF1CFF24FF1CC82FCF70D0E0CC0F58
S1131450DD1FCF0DD11DCC0FDD1FCC0FDD1FCC0F39
S1131460DD1FC05BDE4D8CDCDC01FE0102E0059378
S11314708C9180FF12C08E7F8C931796ED91FC9116
S11314801897309751F0FF2019F06E817F8102C0C8
S11314906A817B81412F81E00995DF91CF911F9172
S11314A00F91FF900895CF93C82FC4DFEC2FEF70F6
S11314B0F0E0EE0FFF1F8C2F992787FD909588276A
S11314C0990F881F9927E80FF91FEE0FFF1FEE0FE2
S11314D0FF1FEE0FFF1FE05BFE4D1182CF910895B9
S11314E00F93E82FEF70F0E0EE0FFF1F282F332744
S11314F027FD30952227330F221F3327E20FF31FD6
S1131500EE0FFF1FEE0FFF1FEE0FFF1FE05BFE4D00
S113151091819460918301E006938CDF81E00F91C7
S113152008951F920F920FB60F9211240F932F93C9
S11315303F934F935F936F937F938F939F93AF9357
S1131540BF93EF93FF938091CB0488232CF480E81E
S11315508093CA0429D884C08091CB0482FF20C020
S113156084E08093CA048091582186FF79C08091D9
S1131570CC0481FD75C01FDC811172C080914521AE
S1131580813011F455DB6CC0843009F069C0E9E5A1
S1131590F1E204E00593E1E5F1E204E0059360C0C3
S11315A08091CB0481FF57C082E08093CA0480916C
S11315B0502186FF55C08091CC0481FD51C0FBDBD6
S11315C081114EC080914521823041F484E08093A2
S11315D04521E0E5F1E202E0069342C0833009F0E0
S11315E03FC0E9E5F1E204E00593E1E5F1E204E05E
S11315F0059336C080E18093CA040E94AF02109222
S1131600C304E1E5F1E2108296E09093502180E476
S11316108083E9E5F1E2108290935821808389E385
S113162091E28093542190935521C9DA19C0809195
S1131630CB0486FF06C080E48093CA0480E0A0DA6D
S11316400FC08091CB0485FF0BC080E28093CA0455
S113165081E096DA05C08091CB0484FFE8CFCACF3D
S1131660FF91EF91BF91AF919F918F917F916F9176
S11316705F914F913F912F910F910F900FBE0F905B
S11316801F9018951F920F920FB60F9211240F936B
S11316901F932F933F934F935F936F937F938F93F6
S11316A09F93AF93BF93CF93DF93EF93FF93809177
S11316B0CC0481FD03C07FDB8111B7C082E080933D
S11316C0CC048091C5048195880FE0E5F1E2E81B24
S11316D0F10920813181205531423695279536957F
S11316E0279536952795822F869520FF02C090E88E
S11316F001C090E0890FE82FEF70F0E0EE0FFF1FBC
S1131700282F332727FD30952227330F221F332715
S1131710E20FF31FEE0FFF1FEE0FFF1FEE0FFF1F71
S1131720E05BFE4D908195FF80C000E2069381113D
S113173077C080914521843019F488DA40DA75C085
S1131740C0915221D0915321809180219091812187
S1131750009141211091422198012C0F3D1F8217C5
S1131760930718F4EC01C01BD10B80917E2190915A
S11317707F21AE0169E371E2800F911F4DD20C0FFE
S11317801D1F0093412110934221289769F48091F1
S1131790432190914421800F911F20917C2130910D
S11317A07D218217930788F0009380211093812173
S11317B0E0918421F0918521309729F009958111D8
S11317C002C028DA32C034DA30C08091802190918E
S11317D0812108171907F9F4E0918421F0918521FA
S11317E0309711F417DA21C00995811102C012DA79
S11317F01CC020914321309144218091412190913A
S11318004221820F931F809343219093442110928D
S1131810412110924221E0E5F1E202E0069305C085
S1131820803811F41BDA01C035DBFF91EF91DF91B1
S1131830CF91BF91AF919F918F917F916F915F9164
S11318404F913F912F911F910F910F900FBE0F90C9
S11318501F901895CF93DF93EA014091762144239A
S11318600CF063C0407609F041C020917721263006
S1131870E9F50E94A802FC012285213299F5209104
S113188079212132B9F49C01275F3F4F20937E21B7
S113189030937F21818520917C2130917D2190E0BE
S11318A02817390708F4C901809380219093812176
S11318B081E064C0FC013785231316C0C0937E21E8
S11318C0D0937F212089318980917C2190917D2141
S11318D02817390708F4C901809380219093812146
S11318E081E04CC080E04AC080E048C04032E9F565
S11318F020917721223019F0233061F038C0809391
S11319007E2190937F2181E090E0809380219093C9
S1131910812134C060937E2170937F2181E090E027
S1131920809380219093812129C04076403209F52B
S1131930409177214A3039F04B3059F04930D9F48D
S1131940F90109951BC020917921FC01208381E0D4
S113195015C080917C2190917D21892B71F4809117
S11319607821FB01808381E009C080E007C080E02A
S113197005C080E003C080E001C080E0DF91CF912A
S11319800895CF93DF9300D000D0CDB7DEB78FEFAB
S11319908093700080937100809372008093730031
S11319A08093740080937500809376006CE170E0FE
S11319B082E08BD08A836DE170E082E086D08983F7
S11319C089819A81019621F480E493E289839A8340
S11319D089819A818B839C83E0E6F0E082838C8109
S11319E08383E0E5F0E0818184FD0BC08FB7F89438
S11319F090E195839081906190838FBF818184FF72
S1131A00FDCF64E080E490E06AD08FB7F894E0E51D
S1131A10F0E09081946090838FBF818182FFFDCF3D
S1131A208FB7F894E0E5F0E096819E7F9683E8E630
S1131A30F0E09081916090838FBF2496CDBFDEBF8C
S1131A40DF91CF9108959FB7F894E82FF0E0E05923
S1131A50FF4F60958081682360839FBF089586301F
S1131A6011F468E101C060E0E0E5F0E0818181FD0E
S1131A7024C08FB7F8949081926090838FBF818146
S1131A8081FFFDCF8FB7F894A0E5B0E016969C9146
S1131A901697997F16969C931697E0E6F0E090E8E7
S1131AA095839BEB968316969C9116979460169655
S1131AB09C939081916090838FBF636084E490E0F5
S1131AC00ED060E480E0BFCF08954091CA01E62FB4
S1131AD0F72F8093CA0184914093CA0108951BBED5
S1131AE0FC0128ED24BF608308950895E0E6F6E044
S1131AF083E0808381E08683A0E4B6E01C92C0EB9F
S1131B00D0E08FEF888390E150969C93A0E0B6E0FC
S1131B101C92888350969C93848333DF87E0E0EAA9
S1131B20F0E082837894E1DF0E94AD02C1DAE0E65E
S1131B30F6E081E0858382E0868320E080E00F2E5A
S1131B40F0E4EF2EF6E0FF2EF02D00E616E0CC24B4
S1131B50C394C0E0D6E0F701D084D81649F0E091F0
S1131B608C21F0918D21D482B884B21204C00CC0AF
S1131B70B884B21621F1E0918C21F0918D218B2D46
S1131B808695869586958583F801C68280918C21F9
S1131B9090918D210E94910180E090E0019685351D
S1131BA0F0ED9F07D9F7E0918C21F0918D211282FD
S1131BB0138214821582F801C5822B2D01C02B2DAE
S1131BC080E090E001968535F0ED9F07D9F78D2DE3
S1131BD0C2CF81E0809375210895109275210895F4
S1131BE008950895AA1BBB1B51E107C0AA1FBB1F80
S1131BF0A617B70710F0A61BB70B881F991F5A9595
S1131C00A9F780959095BC01CD010895EE0FFF1FB3
S1131C100590F491E02D0994FB01DC0102C00190D0
S1111C200D9241505040D8F70895F894FFCF2C
S1131C2E05010904A101A10005010930093115813D
S1131C3E257F75089502810205091901291E1500D3
S1131C4E25017501951E8102750295018103C0C09F
S1131C5E620178017B0123010000000300000000F3
S1131C6E0000000000000000000000000000000062
S1131C7E0000000000000000000053746172436F06
S1131C8E6E74726F6C204F6E6500466C6F72696174
S1131C9E6E2042757279000004030904B22082207A
S1131CAE00008820862030200902290001010080CE
S1131CBE3209040000020300000009211101000191
S1131CCE223000070581034000040705020340008B
S1131CDE04001201000200000008EB036A11000167
S10F1CEE0102030131322E2E2E45460067
S9030000FC
